:100000000C94CE000C94EB000C94EB000C94EB00E1
:100010000C94EB000C94EB000C94EB000C94A607F2
:100020000C94EB000C94EB000C94EB000C949006F9
:100030000C94EB000C94EB000C94EB000C94EB0094
:100040000C94EB000C94EB000C94ED000C941B0151
:100050000C94EB000C94EB000C94EB000C94EB0074
:100060000C94EB000C94EB0032363A3D3F40414299
:1000700043444546494B4E505253555658595A5B86
:100080005C5D5D5E5E5F5F60606161616262626275
:10009000626363636363636364646E616E00696E6D
:1000A000660000407A10F35A00A0724E1809001042
:1000B000A5D4E80000E87648170000E40B540200DD
:1000C00000CA9A3B000000E1F50500008096980008
:1000D000000040420F000000A08601000000102731
:1000E00000000000E80300000000640000000000C1
:1000F0000A00000000000100000000002C76D888F3
:10010000DC674F0823DFC1DFAE59E1B1B796E5E305
:10011000E453C63AE651997696E8E6C28426EB891E
:100120008C9B62ED407C6FFCEFBC9C9F40F2BAA5BB
:100130006FA5F490055A2AF75C936B6CF9676DC153
:100140001BFCE0E40D47FEF520E6B500D0ED902E57
:100150000300943577050080841E080000204E0AB5
:10016000000000C80C333333330F986E12831141F3
:10017000EF8D2114893BE65516CFFEE6DB18D184BE
:100180004B381BF77C1D901DA4BBE42420328472E5
:100190005E228100C9F124ECA1E53D2711241FBE98
:1001A000CFEFD8E0DEBFCDBF11E0A0E0B1E0EEEED2
:1001B000F3E202C005900D92AA3BB107D9F712E015
:1001C000AAEBB1E001C01D92A536B107E1F70E948C
:1001D000B0070C94F5110C9400001F920F920FB60B
:1001E0000F9211242F938F939F93EF93FF939091EE
:1001F000C0002091C600E0913C02EF5FEF73809158
:100200003D02E81711F492E007C09871E0933C02B8
:10021000F0E0E650FE4F208380913E02982B9093B1
:100220003E02FF91EF919F918F912F910F900FBE02
:100230000F901F9018951F920F920FB60F921124D6
:100240008F939F93EF93FF9390913A0280913B029B
:10025000981769F0E0913B02EF5FEF73E0933B0288
:10026000F0E0E654FE4F80818093C60005C0809187
:10027000C1008F7D8093C100FF91EF919F918F917D
:100280000F900FBE0F901F9018959C0110923A028C
:1002900010923B0210923C0210923D0297FF04C064
:1002A00082E08093C0003F773093C5002093C40064
:1002B00088E98093C10086E08093C200089580E1C0
:1002C00090E00E94450183EA91E09093620280935E
:1002D000610285E991E09093600280935F027894D7
:1002E000089590913C0280913D02981719F420E006
:1002F00031E010C0E0913D02EF5FEF73E0933D020B
:10030000F0E0E650FE4F808190913E0210923E0256
:10031000282F30E0C9010895282F90913A029F5F5D
:100320009F7380913B029817E1F3E92FF0E0E654C8
:10033000FE4F208390933A028091C10080628093A7
:10034000C10008951F9390913C0280913D0298173F
:10035000D1F3E0913D02EF5FEF73E0933D02F0E0F7
:10036000E650FE4F108180913E0210923E02812F96
:100370000E948C01812F90E01F910895282F909169
:100380003A029F5F9F7380913B029817E1F3E92F38
:10039000F0E0E654FE4F208390933A028091C10032
:1003A00080628093C1002A3019F48DE00E948C0194
:1003B00080E090E00895CF93DF93EC0103C0219695
:1003C0000E948C0188818823D1F7DF91CF91089515
:1003D000CF93DF93EC0102C00E948C01FE012196B5
:1003E00084918823C9F7DF91CF910895EF92FF920E
:1003F0000F931F93CF93DF93182FE62E042FF52E24
:100400006623A1F080ED0E94DE04812F0E94760514
:10041000802F9F2D9C01E90110E004C089910E946A
:1004200076051F5F1E15D0F30E946605DF91CF9100
:100430001F910F91FF90EF900895DF93CF930F924C
:10044000CDB7DEB7698361E0AE014F5F5F4F0E94B9
:10045000F6010F90CF91DF910895DF92EF92FF9216
:100460000F931F93CF93DF93182FD62E042FF52EC3
:10047000662311F410E02AC080ED0E94DE04812F73
:100480000E94760585E38A95F1F781ED0E94DE04EE
:10049000802F9F2D9C018901C0E0D0E0ED2CFF242E
:1004A0000894E108F1080DC0CE15DF0519F40E948B
:1004B000B10502C00E949705F801808321960F5F65
:1004C0001F4FCD1588F31D2D0E946605812FDF91EA
:1004D000CF911F910F91FF90EF90DF9008956F9251
:1004E0007F928F929F92AF92BF92CF92DF92EF92C4
:1004F000FF920F931F936C015B014A0139018BE35B
:100500006EE049E452E00E942D02409149022091A0
:100510004A02942F80E030E0822B932BF6019183E6
:10052000808340914B0220914C02942F80E030E078
:10053000822B932BF5019183808340914D02209172
:100540004E02942F80E030E0822B932BF4019183B4
:1005500080834091510220915202942F80E030E03C
:10056000822B932BF301918380834091530220913E
:100570005402942F80E030E0822B932BF80191837A
:1005800080834091550220915602942F80E030E004
:10059000822B932BF701918380831F910F91FF9002
:1005A000EF90DF90CF90BF90AF909F908F907F9013
:1005B0006F9008952F923F924F925F926F927F9229
:1005C0008F929F92AF92BF92CF92DF92EF92FF9263
:1005D0000F931F93DF93CF93CDB7DEB72C970FB652
:1005E000F894DEBF0FBECDBF6C015B014A0139013B
:1005F000280117011A8219821C821B821E821D8209
:1006000018861F821A8619861C861B86CE010196C3
:10061000BE016D5F7F4FAE014B5F5F4F9E01295F53
:100620003F4F8E01075F1F4FEBE0EE2EF12CEC0EDB
:10063000FD1E0E946F0269817A81882777FD80956F
:10064000982F0E94820920E030E040E858E30E94A1
:100650000E0AF60160837183828393836B817C81B0
:10066000882777FD8095982F0E94820920E030E04E
:1006700040E858E30E940E0AF5016083718382838B
:1006800093836D817E81882777FD8095982F0E94C6
:10069000820920E030E040E858E30E940E0AF401AD
:1006A00060837183828393836F817885665D7F4FDA
:1006B000882777FD8095982F0E94820923E333E3F2
:1006C00043E851E40E941809F30160837183828337
:1006D000938369857A8569507040882777FD809576
:1006E000982F0E94820923E333E343E851E40E94F8
:1006F0001809F20160837183828393836B857C8503
:10070000635E7F4F882777FD8095982F0E9482092E
:1007100023E333E343E851E40E941809F1016083C5
:100720007183828393832C960FB6F894DEBF0FBE3D
:10073000CDBFCF91DF911F910F91FF90EF90DF9090
:10074000CF90BF90AF909F908F907F906F905F9071
:100750004F903F902F900895AB0161E00E942D02D1
:100760000895FF920F931F93DF93CF930F92CDB70E
:10077000DEB7F82E062F142FBE016F5F7F4F0E9449
:10078000AC032981112351F081E090E002C0880F71
:10079000991F0A95E2F7622F682B0AC081E090E06A
:1007A00002C0880F991F0A95E2F7682F60956223AF
:1007B00069838F2D0E941D020F90CF91DF911F91B1
:1007C0000F91FF9008958BE666E041E00E94B1032F
:1007D00008958BE666E040E00E94B1030895EF9231
:1007E000FF920F931F93DF93CF930F92CDB7DEB796
:1007F000E82E062F142FF22E442379F11982BE0120
:100800006F5F7F4F0E94AC03882339F1212F30E0C6
:10081000402F50E04F5F5F4F421B530B81E090E051
:1008200002C0880F991F1A95E2F70197042E02C0A3
:10083000880F991F0A94E2F72F2D30E002C0220F93
:10084000331F4A95E2F7682F60954981642382231C
:10085000682B69838E2D0E941D020F90CF91DF912E
:100860001F910F91FF90EF9008950E94D80485E3A7
:100870008A95F1F788EE93E020E931E0F9013197AC
:10088000F1F70197D9F70E94E90380E49CE9019709
:10089000F1F78BE662E043E021E00E94EF038AE19A
:1008A00062E043E023E00E94EF0389E164E00E94FC
:1008B0001D028BE164E042E023E00E94EF038CE143
:1008C00064E042E020E00E94EF030895FF920F935E
:1008D0001F93DF93CF930F92CDB7DEB7F62E8A0129
:1008E000BE016F5F7F4F0E94AC0321E030E002C089
:1008F000220F331FFA94E2F799819223F801908333
:100900000F90CF91DF911F910F91FF900895EF927B
:10091000FF920F931F93DF93CF930F92CDB7DEB764
:10092000062F142F7901442311F460E029C0BE0181
:100930006F5F7F4F0E94AC03682F882309F1812FDE
:1009400090E0402F50E04F5F5F4F481B590B21E074
:1009500030E002C0220F331F1A95E2F721503040D9
:10096000042E02C0220F331F0A94E2F789818223EA
:1009700090E002C0959587954A95E2F7F70180834C
:10098000862F0F90CF91DF911F910F91FF90EF90E5
:10099000089585E766E046E029E432E00E94870496
:1009A0008091490290E0843309F491E0892F089501
:1009B0001092B90088E48093B8000895982F84EAD3
:1009C0008093BC002FEF30E040E050E08091BC000D
:1009D00087FF07C0211531054105510509F431C0D4
:1009E00005C0215031094109510980F78091B900B2
:1009F000887F883011F0803121F59093BB0084E826
:100A00008093BC002FEF30E040E050E08091BC00CC
:100A100087FF06C0211531054105510591F005C03C
:100A2000215031094109510988F79091B900987F07
:100A3000983111F480E0089580E0903419F081E05D
:100A4000089581E00895982F64EA54E844E960939A
:100A5000BC0020E030E08091BC0087FD06C02F5F25
:100A60003F4F81E020303807B1F78091B900887F8F
:100A7000883011F0803159F79093BB005093BC003F
:100A800020E030E08091BC0087FD06C02F5F3F4F23
:100A900081E020303807B1F78091B900887F80323B
:100AA00011F0883579F44093BC0020E030E080916B
:100AB000BC0084FFCCCF2F5F3F4F81E02030380750
:100AC000B1F7C5CF08950E94DE04089584E98093AC
:100AD000BC0020E030E08091BC0084FF06C02F5FA6
:100AE0003F4F81E020303807B1F708958093BB0075
:100AF00084E88093BC002FEF30E040E050E080912C
:100B0000BC0087FF06C0211531054105510561F084
:100B100005C0215031094109510988F78091B90078
:100B200090E0887F883209F091E0892F089584EC65
:100B30008093BC002FEF30E040E050E08091BC009B
:100B400087FF07C0211531054105510539F480E0C3
:100B50000895215031094109510980F78091BB0066
:100B6000089584E88093BC002FEF30E040E050E02F
:100B70008091BC0087FF07C0211531054105510553
:100B800039F480E00895215031094109510980F775
:100B90008091BB00089581E08093590280935A02AE
:100BA00010925C0210925B0210925E0210925D0243
:100BB000109257028AB188668AB9F894E1E8F0E0A9
:100BC00080818B6080831092850010928400E8E61B
:100BD000F0E0E49185E690E08E1B91092AE931E08E
:100BE000AC01429FC001439F900D529F900D112474
:100BF0009093890080938800EFE6F0E08081826026
:100C0000808378948BB187798BB908958BB187797C
:100C10008BB90895DF93CF93CDB7DEB728970FB682
:100C2000F894DEBF0FBECDBF6D837E838F83988720
:100C30008F8198856D817E8150935A0290935E02D8
:100C400080935D02E9E5F2E0408370935C0260937B
:100C50005B0232972193308328960FB6F894DEBF5B
:100C60000FBECDBFCF91DF91089580915902181624
:100C700094F480913F028F5F80933F0280913F0206
:100C800087FF02C010923F0280913F028630B4F08D
:100C900010923F0213C080913F02815080933F0227
:100CA00080913F0287FF03C085E080933F028091DF
:100CB0003F0286301CF085E080933F0280913F0226
:100CC0008230B9F083302CF4882351F0813019F54B
:100CD0000BC08430B9F0843084F08530E1F416C064
:100CE0005E9A8BB1877D19C08BB180668BB95B989A
:100CF00008955D9A8BB1877B10C08BB188628BB9E8
:100D00005E9808955B9A8BB18F7907C08BB1886428
:100D10008BB95D9808958BB187798BB90895089543
:100D20001F920F920FB60F9211242F933F934F9360
:100D30005F936F937F938F939F93AF93BF93EF9343
:100D4000FF9380915702882369F48BB187798BB91F
:100D50001092420210925C0210925B02E8E6F0E010
:100D6000E49157C080915802882309F049C00E943D
:100D70003506209188003091890040E050E066E11E
:100D800073E785E090E00E94F80D30935C022093B9
:100D90005B0220915B0230915C0280915D02909138
:100DA0005E02281739078CF480914202813308F0E3
:100DB00042C0809142028F5F80934202E0914202E2
:100DC000F0E0E859FF4FE49124C020915B0230919C
:100DD0005C0280915D0290915E02821793075CF540
:100DE00080914202882339F18091420281508093A0
:100DF0004202E0914202F0E0E859FF4FE49109C05D
:100E00001092420210925C0210925B02E8E6F0E05F
:100E1000E49185E690E08E1B91092AE931E0AC016E
:100E2000429FC001439F900D529F900D11249093BB
:100E3000890080938800FF91EF91BF91AF919F91BE
:100E40008F917F916F915F914F913F912F910F9073
:100E50000FBE0F901F90189580E091E00E94F00F58
:100E60002091570200D000D08DE091E0EDB7FEB7A1
:100E700092838183332727FD3095348323830E9417
:100E8000DB0F809158022DE231E0EDB7FEB73283DF
:100E90002183992787FD9095948383830E94DB0F9C
:100EA00020915B0230915C028BE491E0EDB7FEB7DC
:100EB00092838183348323830E94DB0F80915902C4
:100EC00028E531E0EDB7FEB732832183992787FD0E
:100ED0009095948383830E94DB0F20915D02309173
:100EE0005E0288E691E0EDB7FEB79283818334839A
:100EF00023830E94DB0F80915A022BE731E0EDB78C
:100F0000FEB732832183992787FD9095948383834D
:100F10000E94DB0F0F900F900F900F900895F894A0
:100F20001092B200E0EBF0E0808182608083E1EB20
:100F3000F0E0808187608083E0E7F0E0808182607C
:100F400080838BE98093B300789408951F920F9269
:100F50000FB60F9211240F900FBE0F901F9018958F
:100F60002F923F924F925F926F927F928F929F92B9
:100F7000AF92BF92CF92DF92EF92FF920F931F93A7
:100F8000DF93CF93CDB7DEB7AE970FB6F894DEBF41
:100F90000FBECDBF0E945F010E94CB050E948F074C
:100FA0000E9435041A8219821C821B821E821D82B5
:100FB00018861F821A8619861C861B8680E090E0A0
:100FC000A0E0B0E08D879E87AF87B88B898B9A8B26
:100FD000AB8BBC8B8D8B9E8BAF8BB88F898F9A8F91
:100FE000AB8FBC8F8D8F9E8FAF8FB8A389A39AA331
:100FF000ABA3BCA385E1482E512C4C0E5D1E09E12C
:10100000202E312C2C0E3D1E1DE1612E712C6C0EFC
:101010007D1EB1E28B2E912C8C0E9D1EA5E2CA2E58
:10102000D12CCC0EDD1EF0E9AF2EF1E0BF2ECE01AB
:101030000196BE016D5F7F4FAE014B5F5F4F9E011A
:10104000295F3F4F8E01075F1F4FEBE0EE2EF12C23
:10105000EC0EFD1E0E946F02CE010D96BE016F5E6A
:101060007F4FA2019101830174010E94DA0269811C
:101070007A81882777FD8095982FA6012AE030E0B5
:101080000E947B0F80E20E948C01C6010E94DB015E
:1010900080E20E948C016B817C81882777FD80959E
:1010A000982FA6012AE030E00E947B0F80E20E9488
:1010B0008C01C6010E94DB0180E20E948C016D81DF
:1010C0007E81882777FD8095982FA6012AE030E061
:1010D0000E947B0F80E20E948C01C6010E94DB010E
:1010E00080E20E948C016F817885882777FD80954A
:1010F000982FA6012AE030E00E947B0F80E20E9438
:101100008C01C6010E94DB0180E20E948C0169858E
:101110007A85882777FD8095982FA6012AE030E010
:101120000E947B0F80E20E948C01C6010E94DB01BD
:1011300080E20E948C016B857C85882777FD8095F5
:10114000982FA6012AE030E00E947B0F80E20E94E7
:101150008C01C6010E94DB0180E20E948C0182E9C1
:1011600091E00E94DB016D857E858F85988943E043
:1011700025E086010E946C0EC6010E94DB0180E220
:101180000E948C0169897A898B899C8943E025E0DA
:101190000E946C0EC6010E94DB0180E20E948C015D
:1011A0006D897E898F89988D43E025E00E946C0EC1
:1011B000C6010E94DB0180E20E948C01698D7A8D5C
:1011C0008B8D9C8D43E025E00E946C0EC6010E9431
:1011D000DB0180E20E948C016D8D7E8D8F8D98A148
:1011E00043E025E00E946C0EC6010E94DB0180E214
:1011F0000E948C0169A17AA18BA19CA143E025E00A
:101200000E946C0EC6010E94DB0180E20E948C01EC
:1012100082E991E00E94DB0182E991E00E94DB011A
:1012200080E197E2F5013197F1F70197D9F7FFCE09
:101230000CD0BAC0B2D040F0A9D030F021F45F3F5A
:1012400019F09BC05111E4C09EC0BFD098F3992300
:10125000C9F35523B1F3951B550BBB27AA2762177A
:101260007307840738F09F5F5F4F220F331F441FBF
:10127000AA1FA9F333D00E2E3AF0E0E830D09150F7
:101280005040E695001CCAF729D0FE2F27D0660FE4
:10129000771F881FBB1F261737074807AB07B0E823
:1012A00009F0BB0B802DBF01FF2793585F4F2AF039
:1012B0009E3F510568F061C0ABC05F3FECF3983EC4
:1012C000DCF3869577956795B795F7959F5FC9F796
:1012D000880F911D9695879597F90895E1E0660F1F
:1012E000771F881FBB1F621773078407BA0720F098
:1012F000621B730B840BBA0BEE1F88F7E095089501
:10130000E89409C097FB3EF490958095709561959F
:101310007F4F8F4F9F4F9923A9F0F92F96E9BB2755
:101320009395F695879577956795B795F111F8CFD1
:10133000FAF4BB0F11F460FF1BC06F5F7F4F8F4F3C
:101340009F4F16C0882311F096E911C0772321F032
:101350009EE8872F762F05C0662371F096E8862FCA
:1013600070E060E02AF09A95660F771F881FDAF721
:10137000880F9695879597F9089597F99F6780E864
:1013800070E060E008959FEF80EC089500240A94D7
:101390001616170618060906089500240A94121650
:1013A0001306140605060895092E0394000C11F483
:1013B000882352F0BB0F40F4BF2B11F460FF04C030
:1013C0006F5F7F4F8F4F9F4F089557FD9058440F89
:1013D000551F59F05F3F71F04795880F97FB991F94
:1013E00061F09F3F79F08795089512161306140651
:1013F000551FF2CF4695F1DF08C0161617061806DE
:10140000991FF1CF86957105610508940895E894B8
:10141000BB2766277727CB0197F908950BD0C4CF58
:10142000B5DF28F0BADF18F0952309F0A6CFABCFCF
:101430001124EECFCADFA0F3959FD1F3950F50E0B2
:10144000551F629FF001729FBB27F00DB11D639F76
:10145000AA27F00DB11DAA1F649F6627B00DA11D1C
:10146000661F829F2227B00DA11D621F739FB00DC2
:10147000A11D621F839FA00D611D221F749F332732
:10148000A00D611D231F849F600D211D822F762FCB
:101490006A2F11249F5750408AF0E1F088234AF0C8
:1014A000EE0FFF1FBB1F661F771F881F9150504014
:1014B000A9F79E3F510570F060CFAACF5F3FECF3D4
:1014C000983EDCF3869577956795B795F795E79500
:1014D0009F5FC1F7FE2B880F911D9695879597F911
:1014E0000895A1E1B0E0E7E7FAE00C94130E3C01A7
:1014F0007F876E876A01FC0117821682838181FDD6
:1015000003C06FEF7FEF6FC39E012F5F3F4F398B9B
:10151000288BF3012381EE85FF8523FD859123FF31
:101520008191FF87EE87882309F45AC3853251F4ED
:10153000EE85FF8523FD859123FF8191FF87EE874F
:10154000853229F490E0B3010E94AF0FE2CF982FCB
:1015500010E0882499241032B0F49B3269F09C3258
:1015600028F4903251F0933271F40BC09D3239F06F
:10157000903349F4116028C01260146025C01860CF
:1015800023C0106121C017FD2AC0892F80538A30E3
:1015900078F416FF06C0FAE09F9E902C1124980E56
:1015A00013C03AE0839E802C1124880E10620CC078
:1015B0009E3221F416FD14C3106406C09C3611F44B
:1015C000106802C0983659F4EE85FF8523FD959189
:1015D00023FF9191FF87EE87992309F0BCCF892FD4
:1015E0008554833020F4812F8061905E07C0892F5D
:1015F0008556833008F09FC1812F8F7E86FD02C003
:1016000076E0972E6FE3F62EF822953619F4F0E483
:10161000FF2A07C0963619F420E8F22A02C091107A
:101620009A94F7FE0AC03BE3391518F45CE3B52E33
:1016300002C0B92CB39427E009C047E0491520F453
:10164000BB2447E0942EF7CF292DBB24C601049676
:101650009D878C87F6016081718182819381AE01C3
:101660004F5F5F4F0B2D0E948D0E6C010981202E64
:10167000332400FF04C003FD02C01DE209C0F1FED7
:1016800002C01BE205C0F2FC02C010E001C010E283
:10169000C1018C709070892BB9F1112311F483E092
:1016A00001C084E0881510F088240AC0881AF3FC71
:1016B00007C080E290E0B3010E94AF0F8A94C9F79F
:1016C000112329F0812F90E0B3010E94AF0F23FE78
:1016D00003C00AE910E00EC00EE910E00BC0E114EF
:1016E000F10409F0805290E0B3010E94AF0F0F5F48
:1016F0001F4F05C0EF2CFF24F0E1EF22FF24F8017B
:101700008491882361F714C1F7FE12C0BC0C24FE3B
:1017100004C08A81813309F4BA941B141CF0BB24E1
:10172000B3942DC0F8E0FB1550F538E0B32E27C078
:10173000F6FC25C0892D90E08C159D054CF02CEF12
:10174000C2162FEFD20624F030E8F32A01C09A9493
:10175000992049F0E2E0F0E0EC0FFD1FE90DF11DEA
:1017600080818033A1F3F7FE0AC0B92CB394892D90
:1017700090E0C816D90614F0992401C09C18F7FC13
:1017800003C025E030E009C01C141D041CF021E05A
:1017900030E003C096012F5F3F4F112311F02F5F00
:1017A0003F4F992029F0892D90E00196280F391F8D
:1017B000882D90E02817390714F0882401C0821A78
:1017C0004F2C5524C20189709070892B39F008C0C4
:1017D00080E290E0B3010E94AF0F8A948820C1F7A5
:1017E000112329F0812F90E0B3010E94AF0F43FE37
:1017F00007C008C080E390E0B3010E94AF0F8A9455
:101800008820C1F7F7FE46C08601D7FE02C000E07F
:1018100010E076010894E11CF11CE01AF10A41E0A5
:1018200050E04C0F5D1FE40EF51E26014B185108C9
:10183000892D90E0AA24BB24A81AB90A5FEF0F3FB4
:10184000150729F48EE290E0B3010E94AF0FC01695
:10185000D10634F0401651061CF4F701808101C016
:1018600080E3015010400894E11CF11C0A151B058F
:101870002CF090E0B3010E94AF0FE0CF0C151D05D6
:1018800039F49A81963318F4953311F424FE81E3E8
:1018900090E04BC08A81813309F00F7E90E0B30164
:1018A0000E94AF0F9920A1F08EE290E0B3010E9458
:1018B000AF0F12E0E1E0F0E0EC0FFD1FE10FF11DD2
:1018C0001F5F808190E0B3010E94AF0F9A9491F75F
:1018D00044FC03C085E690E002C085E490E0B301DB
:1018E0000E94AF0FD7FC05C0C114D10441F404FF1E
:1018F00006C0D094C194D108D3948DE201C08BE28C
:1019000090E0B3010E94AF0F80E305C08F5F26EF28
:101910003FEFC20ED31E3AE0C316D104BCF790E0ED
:10192000B3010E94AF0FC601C096B3010E94AF0F72
:10193000CC84DD8452C1933631F0933799F09335DE
:1019400009F059C023C0F601808189835E010894A3
:10195000A11CB11C22E030E0C20ED31E21E0E22E19
:10196000F12C12C0F601A080B18016FD03C06FEF0C
:101970007FEF02C0692D70E022E030E0C20ED31E7E
:10198000C5010E94700F7C011F7713C0F601A08073
:10199000B18016FD03C06FEF7FEF02C0692D70E0CC
:1019A00022E030E0C20ED31EC5010E94650F7C010B
:1019B000106813FF07C01BC080E290E0B3010E94D3
:1019C000AF0F8A94882D90E0E816F906A8F30FC0AF
:1019D000F50117FD859117FF81915F0190E0B3013B
:1019E0000E94AF0F81108A940894E108F108E11475
:1019F000F10471F7F2C0943611F0993689F517FFAA
:101A000008C0F601208131814281538184E090E059
:101A10000AC0F601808191819C01442737FD4095E1
:101A2000542F82E090E0C80ED91E9FE6F92EF122D5
:101A300057FF09C050954095309521953F4F4F4F26
:101A40005F4F90E8F92ACA01B901AE014F5F5F4FBD
:101A50002AE030E00E942510E82EE889EE1A41C005
:101A6000953721F41F7E2AE030E01CC0197F9F3695
:101A700061F0903720F4983509F0B2C00FC090376C
:101A800039F0983709F0ACC004C028E030E00AC053
:101A9000106114FD146020E130E004C014FD1660F4
:101AA00020E132E017FF08C0F60160817181828178
:101AB000938144E050E008C0F60180819181BC012F
:101AC00080E090E042E050E0C40ED51EAE014F5FD2
:101AD0005F4F0E942510E82E5889E51A8FE7F82EEF
:101AE000F122F6FE0BC08EEFF822E91438F4F4FE72
:101AF00007C0F2FC05C09FEEF92202C01E2D01C0F6
:101B0000192DF4FE0DC0FE01EE0DF11D8081803314
:101B100019F4E9EEFE2208C01F5FF2FE05C003C003
:101B20008F2D867809F01F5F0F2DF3FC14C0F0FE97
:101B30000FC0181510F09E2C0BC09E2C980C911AFB
:101B4000182D06C080E290E0B3010E94AF0F1F5F26
:101B50001815C0F304C0181510F4811A01C08824A8
:101B600004FF0FC080E390E0B3010E94AF0F02FFBB
:101B70001DC001FD03C088E790E00EC088E590E03D
:101B80000BC0802F867891F001FF02C08BE201C06C
:101B900080E2F7FC8DE290E0B3010E94AF0F06C037
:101BA00080E390E0B3010E94AF0F9A94E914C0F370
:101BB000EA94E1E0F0E0EC0FFD1FEE0DF11D8081F5
:101BC00090E0B3010E94AF0FEE2091F706C080E2D3
:101BD00090E0B3010E94AF0F8A948820C1F799CC9E
:101BE000F30166817781CB016196E2E10C942F0EBF
:101BF00097FB092E05260ED057FD04D04BD00AD0F6
:101C0000001C38F450954095309521953F4F4F4F2B
:101C10005F4F0895F6F790958095709561957F4F89
:101C20008F4F9F4F08952F923F924F925F926F92E6
:101C30007F928F929F92AF92BF92CF92DF92EF925C
:101C4000FF920F931F93CF93DF93CDB7DEB7CA1BDD
:101C5000DB0B0FB6F894DEBF0FBECDBF09942A8808
:101C6000398848885F846E847D848C849B84AA84B0
:101C7000B984C884DF80EE80FD800C811B81AA813D
:101C8000B981CE0FD11D0FB6F894DEBF0FBECDBF08
:101C9000ED010895A1E21A2EAA1BBB1BFD010DC088
:101CA000AA1FBB1FEE1FFF1FA217B307E407F5070C
:101CB00020F0A21BB30BE40BF50B661F771F881FE8
:101CC000991F1A9469F760957095809590959B017E
:101CD000AC01BD01CF010895EF92FF920F931F93C6
:101CE000F22FF02E47FD02C0E4E001C0E4E1242F12
:101CF000332727FD309537FF03C0309521953F4F9F
:101D00004F2D512F0F2FEE2E0E9483108F2D912FCC
:101D10001F910F91FF90EF900895283008F027E071
:101D20003327DA01990F311D87FD91600096610517
:101D3000710539F432602E5F3D9330E32A95E1F767
:101D400008959F3F30F080387105610509F03C5FD0
:101D50003C5F3D93913008F08068911DDF93CF93F5
:101D60001F930F93FF92EF92192F987F9695E92F6B
:101D700096959695E90FFF27E450FF4F9927332753
:101D8000EE24FF24A701E70105900894079428F4A6
:101D9000360FE71EF81E491F511D660F771F881F5B
:101DA000991F0694A1F70590079428F4E70EF81EF2
:101DB000491F561FC11D770F881F991F661F069464
:101DC000A1F70590079428F4F80E491F561FC71F66
:101DD000D11D880F991F661F771F0694A1F70590E4
:101DE000079420F4490F561FC71FD81F990F661F6D
:101DF000771F881F0694A9F784911095177041F0FA
:101E0000D695C79557954795F794E7941A95C1F7D6
:101E1000E2EAF0E0689415901591359165919591FD
:101E200005907FE27395E118F10A430B560BC90B3D
:101E3000D009C0F7E10CF11E431F561FC91FD01D6A
:101E40007EF4703311F48A95E6CFE894015030F0B7
:101E5000080F0AF40027021708F4202F2395022FF9
:101E60007A3328F079E37D932A95E9F710C07D93C2
:101E70002A9589F60694979567953795179517943F
:101E8000E118F10A430B560BC90BD00998F02395C2
:101E90007E9173957A3308F070E37C932013B8F742
:101EA0007E9170617D9330F0839571E37D9370E353
:101EB0002A95E1F71124EF90FF900F911F91CF9198
:101EC000DF91992787FD90950895FC010590615059
:101ED00070400110D8F7809590958E0F9F1F089540
:101EE000FC016150704001900110D8F780959095E9
:101EF0008E0F9F1F0895FA01CF93FF93EF93223027
:101F000044F1253234F5C22FE894CA3049F497FBE6
:101F10003EF490958095709561957F4F8F4F9F4FC0
:101F20002C2F332744275527FF93EF930E944A0E07
:101F3000EF91FF91605D6A330CF0695D6193B901C7
:101F4000CA01605070408040904051F716F4CDE2D5
:101F5000C19310828F919F91CF910C94E5110F93B3
:101F60001F93CF93DF938C01EB018B8181FF1BC00B
:101F700082FF0DC02E813F818C819D8128173907FA
:101F800064F4E881F9810193F983E88306C0E88568
:101F9000F985802F0995892B31F48E819F810196D7
:101FA0009F838E8302C00FEF1FEFC801DF91CF9197
:101FB0001F910F910895A0E0B0E0E1EEFFE00C94D6
:101FC000230EFE013596619171918091610290918D
:101FD0006202AF010E94710A2096E2E00C943F0E6B
:101FE0000F931F93CF93DF938C01E0916102F091E7
:101FF0006202838181FF21C0C0E0D0E00DC0E0918A
:102000006102F091620220853185BF01F9010995D5
:10201000892B11F0CFEFDFEFF80181918F01882339
:1020200071F7E0916102F0916202208531858AE0CA
:10203000BF01F9010995892B11F0CFEFDFEFCE0138
:10204000DF91CF911F910F910895FA01AA272830AF
:1020500051F1203181F1E8946F936E7F6E5F7F4F75
:102060008F4F9F4FAF4FB1E03ED0B4E03CD0670FF1
:10207000781F891F9A1FA11D680F791F8A1F911D44
:10208000A11D6A0F711D811D911DA11D20D009F494
:1020900068943F912AE0269F11243019305D3193D6
:1020A000DEF6CF010895462F4770405D4193B3E0BF
:1020B0000FD0C9F7F6CF462F4F70405D4A3318F066
:1020C000495D31FD4052419302D0A9F7EACFB4E017
:1020D000A6959795879577956795BA95C9F70097CF
:1020E0006105710508959B01AC010A2E0694579570
:1020F000479537952795BA95C9F7620F731F841FC7
:10210000951FA01D0895A9E0B0E0E9E8F0E10C9466
:10211000170E6A01122FA02EBE2C2BE3201718F4E5
:102120002CE3922E02C0902E9394AE014F5F5F4F2E
:1021300027E0092D0E948D0EBC018981E82EFF2425
:10214000C70189709070019711F4ADE209C0B1FE2A
:1021500002C0ABE205C0B0FC02C0A0E001C0A0E23A
:10216000E3FE3BC0AA2311F423E001C024E02117C1
:1021700010F020E002C0121B212FEB2CB4FE02C095
:10218000322F0AC0F601322F80E202C08193315013
:102190003323E1F7C20ED11CAA2319F0F601A19353
:1021A0006F01F6013196E2FE05C09EE4D6019C93D4
:1021B00081E404C09EE6D6019C9381E611968C933F
:1021C00091833296DF01832F90E202C09D9381506C
:1021D0008823E1F7E30FF11D40C0E2FE42C0AA23CD
:1021E00011F423E001C024E0211710F020E002C028
:1021F000121B212FEB2CB4FE02C0922F0AC0F60155
:10220000922F80E202C0819391509923E1F7C20E90
:10221000D11CAA2319F0F601A1936F01F6013196A2
:10222000E2FE08C089E4D6018C938EE411968C936B
:1022300086E407C089E6D6018C938EE611968C93CE
:1022400086E681833296DF01892F20E202C02D933A
:1022500081508823E1F7E90FF11D10822EEF3FEF47
:10226000AFC0161617061CF041E050E003C0AB01EA
:102270004F5F5F4FAA2019F480E090E003C08A2DE1
:1022800090E0019620E030E0AA2311F021E030E058
:10229000240F351F280F391F812F90E02817390789
:1022A00014F020E002C0121B212F4B2D50E0CA0178
:1022B00080719070B4FC0DC0B3FC0BC0F601322FDE
:1022C00040E202C0419331503323E1F7C20ED11CEA
:1022D00001C0322FAA2319F0F601A1936F01892BB7
:1022E00011F0132F0AC0F601132F80E302C081936F
:1022F00011501123E1F7C30ED11C092D060FBA802E
:1023000090E1892E912C8E209F20E4FE04C0F1E301
:10231000BF1609F40150101614F001E003C0093093
:1023200008F008E09B0177FF02C020E030E0CB011D
:102330000196821B930BFE013196E80FF91F8EE286
:10234000F82E3B01601A71088A2D90E0442755272A
:10235000481B590B8FEF2F3F380719F4D601FD9218
:102360006D01621773072CF06216730614F48081F6
:1023700001C080E32150304031962417350724F006
:10238000D6018D936D01E6CF2617370749F4B5E3E3
:10239000BB1528F0BB1621F48114910409F481E3E4
:1023A000F6018193D601812F90E202C09C93815067
:1023B00011968823D9F7E10FF11D108220E030E05B
:1023C000C9012996EEE00C94330EDC01FC01672F65
:1023D00071917723E1F7329704C07C916D937083FC
:0E23E0006291AE17BF07C8F30895F894FFCFBF
:1023EE004D6F746F722073746174653A00096D6F6E
:1023FE00746F72436F6E74726F6C53746174652E6A
:10240E00656E61626C65643A2025690A00096D6F1C
:10241E00746F72436F6E74726F6C53746174652E49
:10242E006272616B653A2025690A000973706565F1
:10243E00643A20252E690A0009646972656374691D
:10244E006F6E3A2025690A000964657369726564C6
:10245E0053706565643A2025690A000964657369DD
:10246E00726564446972656374696F6E3A2025699A
:10247E000A000D0A0000000001000000000000A28A
:10248E000100000000000200000000BE010000007C
:0A249E0000045D059A0116730500A5
:00000001FF
